{
  "_format": "hh-sol-artifact-1",
  "contractName": "Greeter",
  "sourceName": "contracts/Greeter.sol",
  "abi": [
    {
      "inputs": [
        {
          "internalType": "string",
          "name": "_greeting",
          "type": "string"
        }
      ],
      "stateMutability": "nonpayable",
      "type": "constructor"
    },
    {
      "inputs": [],
      "name": "balanceOf",
      "outputs": [
        {
          "internalType": "uint256",
          "name": "",
          "type": "uint256"
        }
      ],
      "stateMutability": "view",
      "type": "function"
    },
    {
      "inputs": [
        {
          "internalType": "address",
          "name": "",
          "type": "address"
        }
      ],
      "name": "balances",
      "outputs": [
        {
          "internalType": "uint256",
          "name": "",
          "type": "uint256"
        }
      ],
      "stateMutability": "view",
      "type": "function"
    },
    {
      "inputs": [],
      "name": "deposit",
      "outputs": [],
      "stateMutability": "payable",
      "type": "function"
    },
    {
      "inputs": [],
      "name": "getBalance",
      "outputs": [
        {
          "internalType": "uint256",
          "name": "",
          "type": "uint256"
        }
      ],
      "stateMutability": "view",
      "type": "function"
    },
    {
      "inputs": [],
      "name": "greet",
      "outputs": [
        {
          "internalType": "string",
          "name": "",
          "type": "string"
        }
      ],
      "stateMutability": "view",
      "type": "function"
    },
    {
      "inputs": [
        {
          "internalType": "string",
          "name": "_greeting",
          "type": "string"
        }
      ],
      "name": "setGreeting",
      "outputs": [],
      "stateMutability": "nonpayable",
      "type": "function"
    },
    {
      "inputs": [],
      "name": "withdraw",
      "outputs": [],
      "stateMutability": "payable",
      "type": "function"
    },
    {
      "inputs": [
        {
          "internalType": "address payable",
          "name": "_to",
          "type": "address"
        },
        {
          "internalType": "uint256",
          "name": "_amount",
          "type": "uint256"
        }
      ],
      "name": "withdrawAmount",
      "outputs": [],
      "stateMutability": "payable",
      "type": "function"
    }
  ],
  "bytecode": "0x60806040523480156200001157600080fd5b506040516200159938038062001599833981810160405281019062000037919062000278565b620000676040518060600160405280602281526020016200157760229139826200008760201b620007911760201c565b80600090805190602001906200007f92919062000156565b5050620004c5565b620001298282604051602401620000a0929190620002fe565b6040516020818303038152906040527f4b5c4277000000000000000000000000000000000000000000000000000000007bffffffffffffffffffffffffffffffffffffffffffffffffffffffff19166020820180517bffffffffffffffffffffffffffffffffffffffffffffffffffffffff83818316178352505050506200012d60201b60201c565b5050565b60008151905060006a636f6e736f6c652e6c6f679050602083016000808483855afa5050505050565b8280546200016490620003ea565b90600052602060002090601f016020900481019282620001885760008555620001d4565b82601f10620001a357805160ff1916838001178555620001d4565b82800160010185558215620001d4579182015b82811115620001d3578251825591602001919060010190620001b6565b5b509050620001e39190620001e7565b5090565b5b8082111562000202576000816000905550600101620001e8565b5090565b60006200021d620002178462000362565b62000339565b9050828152602081018484840111156200023657600080fd5b62000243848285620003b4565b509392505050565b600082601f8301126200025d57600080fd5b81516200026f84826020860162000206565b91505092915050565b6000602082840312156200028b57600080fd5b600082015167ffffffffffffffff811115620002a657600080fd5b620002b4848285016200024b565b91505092915050565b6000620002ca8262000398565b620002d68185620003a3565b9350620002e8818560208601620003b4565b620002f381620004b4565b840191505092915050565b600060408201905081810360008301526200031a8185620002bd565b90508181036020830152620003308184620002bd565b90509392505050565b60006200034562000358565b905062000353828262000420565b919050565b6000604051905090565b600067ffffffffffffffff82111562000380576200037f62000485565b5b6200038b82620004b4565b9050602081019050919050565b600081519050919050565b600082825260208201905092915050565b60005b83811015620003d4578082015181840152602081019050620003b7565b83811115620003e4576000848401525b50505050565b600060028204905060018216806200040357607f821691505b602082108114156200041a576200041962000456565b5b50919050565b6200042b82620004b4565b810181811067ffffffffffffffff821117156200044d576200044c62000485565b5b80604052505050565b7f4e487b7100000000000000000000000000000000000000000000000000000000600052602260045260246000fd5b7f4e487b7100000000000000000000000000000000000000000000000000000000600052604160045260246000fd5b6000601f19601f8301169050919050565b6110a280620004d56000396000f3fe60806040526004361061007b5760003560e01c8063736fe5651161004e578063736fe5651461011d578063a413686214610139578063cfae321714610162578063d0e30db01461018d5761007b565b806312065fe01461008057806327e235e3146100ab5780633ccfd60b146100e8578063722713f7146100f2575b600080fd5b34801561008c57600080fd5b50610095610197565b6040516100a29190610cd3565b60405180910390f35b3480156100b757600080fd5b506100d260048036038101906100cd9190610a3f565b6101de565b6040516100df9190610cd3565b60405180910390f35b6100f06101f6565b005b3480156100fe57600080fd5b506101076103c4565b6040516101149190610cd3565b60405180910390f35b61013760048036038101906101329190610a68565b6103cc565b005b34801561014557600080fd5b50610160600480360381019061015b9190610aa4565b6105e0565b005b34801561016e57600080fd5b506101776106a7565b6040516101849190610bce565b60405180910390f35b610195610739565b005b6000600260003373ffffffffffffffffffffffffffffffffffffffff1673ffffffffffffffffffffffffffffffffffffffff16815260200190815260200160002054905090565b60026020528060005260406000206000915090505481565b600160009054906101000a900460ff1615610246576040517f08c379a000000000000000000000000000000000000000000000000000000000815260040161023d90610c73565b60405180910390fd5b60018060006101000a81548160ff0219169083151502179055506000600260003373ffffffffffffffffffffffffffffffffffffffff1673ffffffffffffffffffffffffffffffffffffffff168152602001908152602001600020549050600081116102e7576040517f08c379a00000000000000000000000000000000000000000000000000000000081526004016102de90610c93565b60405180910390fd5b6000600260003373ffffffffffffffffffffffffffffffffffffffff1673ffffffffffffffffffffffffffffffffffffffff1681526020019081526020016000208190555060003373ffffffffffffffffffffffffffffffffffffffff166108fc839081150290604051600060405180830381858888f193505050509050806103a5576040517f08c379a000000000000000000000000000000000000000000000000000000000815260040161039c90610cb3565b60405180910390fd5b50506000600160006101000a81548160ff021916908315150217905550565b600047905090565b600160009054906101000a900460ff161561041c576040517f08c379a000000000000000000000000000000000000000000000000000000000815260040161041390610c73565b60405180910390fd5b60018060006101000a81548160ff0219169083151502179055506000600260003373ffffffffffffffffffffffffffffffffffffffff1673ffffffffffffffffffffffffffffffffffffffff168152602001908152602001600020549050818110156104bd576040517f08c379a00000000000000000000000000000000000000000000000000000000081526004016104b490610c93565b60405180910390fd5b81600260003373ffffffffffffffffffffffffffffffffffffffff1673ffffffffffffffffffffffffffffffffffffffff168152602001908152602001600020600082825461050c9190610dc1565b9250508190555060008373ffffffffffffffffffffffffffffffffffffffff168360405161053990610bb9565b60006040518083038185875af1925050503d8060008114610576576040519150601f19603f3d011682016040523d82523d6000602084013e61057b565b606091505b50509050806105bf576040517f08c379a00000000000000000000000000000000000000000000000000000000081526004016105b690610cb3565b60405180910390fd5b50506000600160006101000a81548160ff0219169083151502179055505050565b61068d60405180606001604052806023815260200161104a602391396000805461060990610e85565b80601f016020809104026020016040519081016040528092919081815260200182805461063590610e85565b80156106825780601f1061065757610100808354040283529160200191610682565b820191906000526020600020905b81548152906001019060200180831161066557829003601f168201915b50505050508361082d565b80600090805190602001906106a39291906108f5565b5050565b6060600080546106b690610e85565b80601f01602080910402602001604051908101604052809291908181526020018280546106e290610e85565b801561072f5780601f106107045761010080835404028352916020019161072f565b820191906000526020600020905b81548152906001019060200180831161071257829003601f168201915b5050505050905090565b34600260003373ffffffffffffffffffffffffffffffffffffffff1673ffffffffffffffffffffffffffffffffffffffff16815260200190815260200160002060008282546107889190610d6b565b92505081905550565b61082982826040516024016107a7929190610bf0565b6040516020818303038152906040527f4b5c4277000000000000000000000000000000000000000000000000000000007bffffffffffffffffffffffffffffffffffffffffffffffffffffffff19166020820180517bffffffffffffffffffffffffffffffffffffffffffffffffffffffff83818316178352505050506108cc565b5050565b6108c783838360405160240161084593929190610c27565b6040516020818303038152906040527f2ced7cef000000000000000000000000000000000000000000000000000000007bffffffffffffffffffffffffffffffffffffffffffffffffffffffff19166020820180517bffffffffffffffffffffffffffffffffffffffffffffffffffffffff83818316178352505050506108cc565b505050565b60008151905060006a636f6e736f6c652e6c6f679050602083016000808483855afa5050505050565b82805461090190610e85565b90600052602060002090601f016020900481019282610923576000855561096a565b82601f1061093c57805160ff191683800117855561096a565b8280016001018555821561096a579182015b8281111561096957825182559160200191906001019061094e565b5b509050610977919061097b565b5090565b5b8082111561099457600081600090555060010161097c565b5090565b60006109ab6109a684610d13565b610cee565b9050828152602081018484840111156109c357600080fd5b6109ce848285610e43565b509392505050565b6000813590506109e581611004565b92915050565b6000813590506109fa8161101b565b92915050565b600082601f830112610a1157600080fd5b8135610a21848260208601610998565b91505092915050565b600081359050610a3981611032565b92915050565b600060208284031215610a5157600080fd5b6000610a5f848285016109d6565b91505092915050565b60008060408385031215610a7b57600080fd5b6000610a89858286016109eb565b9250506020610a9a85828601610a2a565b9150509250929050565b600060208284031215610ab657600080fd5b600082013567ffffffffffffffff811115610ad057600080fd5b610adc84828501610a00565b91505092915050565b6000610af082610d44565b610afa8185610d5a565b9350610b0a818560208601610e52565b610b1381610f75565b840191505092915050565b6000610b2b600d83610d5a565b9150610b3682610f86565b602082019050919050565b6000610b4e601383610d5a565b9150610b5982610faf565b602082019050919050565b6000610b71600083610d4f565b9150610b7c82610fd8565b600082019050919050565b6000610b94600e83610d5a565b9150610b9f82610fdb565b602082019050919050565b610bb381610e39565b82525050565b6000610bc482610b64565b9150819050919050565b60006020820190508181036000830152610be88184610ae5565b905092915050565b60006040820190508181036000830152610c0a8185610ae5565b90508181036020830152610c1e8184610ae5565b90509392505050565b60006060820190508181036000830152610c418186610ae5565b90508181036020830152610c558185610ae5565b90508181036040830152610c698184610ae5565b9050949350505050565b60006020820190508181036000830152610c8c81610b1e565b9050919050565b60006020820190508181036000830152610cac81610b41565b9050919050565b60006020820190508181036000830152610ccc81610b87565b9050919050565b6000602082019050610ce86000830184610baa565b92915050565b6000610cf8610d09565b9050610d048282610eb7565b919050565b6000604051905090565b600067ffffffffffffffff821115610d2e57610d2d610f46565b5b610d3782610f75565b9050602081019050919050565b600081519050919050565b600081905092915050565b600082825260208201905092915050565b6000610d7682610e39565b9150610d8183610e39565b9250827fffffffffffffffffffffffffffffffffffffffffffffffffffffffffffffffff03821115610db657610db5610ee8565b5b828201905092915050565b6000610dcc82610e39565b9150610dd783610e39565b925082821015610dea57610de9610ee8565b5b828203905092915050565b6000610e0082610e19565b9050919050565b6000610e1282610e19565b9050919050565b600073ffffffffffffffffffffffffffffffffffffffff82169050919050565b6000819050919050565b82818337600083830152505050565b60005b83811015610e70578082015181840152602081019050610e55565b83811115610e7f576000848401525b50505050565b60006002820490506001821680610e9d57607f821691505b60208210811415610eb157610eb0610f17565b5b50919050565b610ec082610f75565b810181811067ffffffffffffffff82111715610edf57610ede610f46565b5b80604052505050565b7f4e487b7100000000000000000000000000000000000000000000000000000000600052601160045260246000fd5b7f4e487b7100000000000000000000000000000000000000000000000000000000600052602260045260246000fd5b7f4e487b7100000000000000000000000000000000000000000000000000000000600052604160045260246000fd5b6000601f19601f8301169050919050565b7f4e6f2072652d656e747261637900000000000000000000000000000000000000600082015250565b7f4e6f7420656e6f7567682062616c616e63657300000000000000000000000000600082015250565b50565b7f4661696c656420746f2073656e64000000000000000000000000000000000000600082015250565b61100d81610df5565b811461101857600080fd5b50565b61102481610e07565b811461102f57600080fd5b50565b61103b81610e39565b811461104657600080fd5b5056fe4368616e67696e67206772656574696e672066726f6d202725732720746f2027257327a2646970667358221220e16b323b7d49bd5abbab9c3c6b116bdd0f1b52f714d51d091e0c2f295e9083e864736f6c634300080400334465706c6f79696e67206120477265657465722077697468206772656574696e673a",
  "linkReferences": {},
  "deployedLinkReferences": {}
}